{
  "_format": "hh-sol-artifact-1",
  "contractName": "MyNFTMarket",
  "sourceName": "contracts/NFTMarket.sol",
  "abi": [
    {
      "inputs": [],
      "stateMutability": "nonpayable",
      "type": "constructor"
    },
    {
      "anonymous": false,
      "inputs": [
        {
          "indexed": true,
          "internalType": "uint256",
          "name": "itemId",
          "type": "uint256"
        },
        {
          "indexed": true,
          "internalType": "address",
          "name": "nftContract",
          "type": "address"
        },
        {
          "indexed": true,
          "internalType": "uint256",
          "name": "tokenId",
          "type": "uint256"
        },
        {
          "indexed": false,
          "internalType": "address",
          "name": "seller",
          "type": "address"
        },
        {
          "indexed": false,
          "internalType": "address",
          "name": "owner",
          "type": "address"
        },
        {
          "indexed": false,
          "internalType": "uint256",
          "name": "price",
          "type": "uint256"
        },
        {
          "indexed": false,
          "internalType": "bool",
          "name": "sold",
          "type": "bool"
        }
      ],
      "name": "MarketItemCreated",
      "type": "event"
    },
    {
      "inputs": [
        {
          "internalType": "address",
          "name": "nftContract",
          "type": "address"
        },
        {
          "internalType": "uint256",
          "name": "tokenId",
          "type": "uint256"
        },
        {
          "internalType": "uint256",
          "name": "price",
          "type": "uint256"
        }
      ],
      "name": "createMarketItem",
      "outputs": [],
      "stateMutability": "payable",
      "type": "function"
    },
    {
      "inputs": [
        {
          "internalType": "address",
          "name": "nftContract",
          "type": "address"
        },
        {
          "internalType": "uint256",
          "name": "itemId",
          "type": "uint256"
        }
      ],
      "name": "createMarketSale",
      "outputs": [],
      "stateMutability": "payable",
      "type": "function"
    },
    {
      "inputs": [],
      "name": "fetchCreatedItems",
      "outputs": [
        {
          "components": [
            {
              "internalType": "uint256",
              "name": "itemId",
              "type": "uint256"
            },
            {
              "internalType": "address",
              "name": "nftContract",
              "type": "address"
            },
            {
              "internalType": "uint256",
              "name": "tokenId",
              "type": "uint256"
            },
            {
              "internalType": "address payable",
              "name": "seller",
              "type": "address"
            },
            {
              "internalType": "address payable",
              "name": "owner",
              "type": "address"
            },
            {
              "internalType": "uint256",
              "name": "price",
              "type": "uint256"
            },
            {
              "internalType": "bool",
              "name": "sold",
              "type": "bool"
            }
          ],
          "internalType": "struct MyNFTMarket.MarketItem[]",
          "name": "",
          "type": "tuple[]"
        }
      ],
      "stateMutability": "view",
      "type": "function"
    },
    {
      "inputs": [],
      "name": "fetchMarketItems",
      "outputs": [
        {
          "components": [
            {
              "internalType": "uint256",
              "name": "itemId",
              "type": "uint256"
            },
            {
              "internalType": "address",
              "name": "nftContract",
              "type": "address"
            },
            {
              "internalType": "uint256",
              "name": "tokenId",
              "type": "uint256"
            },
            {
              "internalType": "address payable",
              "name": "seller",
              "type": "address"
            },
            {
              "internalType": "address payable",
              "name": "owner",
              "type": "address"
            },
            {
              "internalType": "uint256",
              "name": "price",
              "type": "uint256"
            },
            {
              "internalType": "bool",
              "name": "sold",
              "type": "bool"
            }
          ],
          "internalType": "struct MyNFTMarket.MarketItem[]",
          "name": "",
          "type": "tuple[]"
        }
      ],
      "stateMutability": "view",
      "type": "function"
    },
    {
      "inputs": [],
      "name": "fetchMyNFTs",
      "outputs": [
        {
          "components": [
            {
              "internalType": "uint256",
              "name": "itemId",
              "type": "uint256"
            },
            {
              "internalType": "address",
              "name": "nftContract",
              "type": "address"
            },
            {
              "internalType": "uint256",
              "name": "tokenId",
              "type": "uint256"
            },
            {
              "internalType": "address payable",
              "name": "seller",
              "type": "address"
            },
            {
              "internalType": "address payable",
              "name": "owner",
              "type": "address"
            },
            {
              "internalType": "uint256",
              "name": "price",
              "type": "uint256"
            },
            {
              "internalType": "bool",
              "name": "sold",
              "type": "bool"
            }
          ],
          "internalType": "struct MyNFTMarket.MarketItem[]",
          "name": "",
          "type": "tuple[]"
        }
      ],
      "stateMutability": "view",
      "type": "function"
    },
    {
      "inputs": [],
      "name": "getListingPrice",
      "outputs": [
        {
          "internalType": "uint256",
          "name": "",
          "type": "uint256"
        }
      ],
      "stateMutability": "view",
      "type": "function"
    }
  ],
  "bytecode": "0x60806040526611c37937e0800060045534801561001b57600080fd5b50600160008190555033600360006101000a81548173ffffffffffffffffffffffffffffffffffffffff021916908373ffffffffffffffffffffffffffffffffffffffff160217905550611955806100746000396000f3fe6080604052600436106100555760003560e01c80630f08efe01461005a57806312e8558514610085578063202e3740146100b057806358eb2df5146100db5780639ff82b3d146100f7578063c23b139e14610122575b600080fd5b34801561006657600080fd5b5061006f61013e565b60405161007c919061159e565b60405180910390f35b34801561009157600080fd5b5061009a61045a565b6040516100a79190611640565b60405180910390f35b3480156100bc57600080fd5b506100c5610464565b6040516100d2919061159e565b60405180910390f35b6100f560048036038101906100f091906112da565b61080b565b005b34801561010357600080fd5b5061010c610b6f565b604051610119919061159e565b60405180910390f35b61013c6004803603810190610137919061129e565b610f16565b005b6060600061014c60016111cf565b9050600061015a60026111cf565b8261016591906116fb565b905060008167ffffffffffffffff8111156101a9577f4e487b7100000000000000000000000000000000000000000000000000000000600052604160045260246000fd5b6040519080825280602002602001820160405280156101e257816020015b6101cf6111f3565b8152602001906001900390816101c75790505b5090506000805b8481101561044f57600073ffffffffffffffffffffffffffffffffffffffff166005600060018461021a91906116a5565b815260200190815260200160002060040160009054906101000a900473ffffffffffffffffffffffffffffffffffffffff1673ffffffffffffffffffffffffffffffffffffffff16141561043c5760006005600060018461027b91906116a5565b8152602001908152602001600020600001549050600560008281526020019081526020016000206040518060e0016040529081600082015481526020016001820160009054906101000a900473ffffffffffffffffffffffffffffffffffffffff1673ffffffffffffffffffffffffffffffffffffffff1673ffffffffffffffffffffffffffffffffffffffff168152602001600282015481526020016003820160009054906101000a900473ffffffffffffffffffffffffffffffffffffffff1673ffffffffffffffffffffffffffffffffffffffff1673ffffffffffffffffffffffffffffffffffffffff1681526020016004820160009054906101000a900473ffffffffffffffffffffffffffffffffffffffff1673ffffffffffffffffffffffffffffffffffffffff1673ffffffffffffffffffffffffffffffffffffffff168152602001600582015481526020016006820160009054906101000a900460ff161515151581525050848481518110610421577f4e487b7100000000000000000000000000000000000000000000000000000000600052603260045260246000fd5b6020026020010181905250828061043790611789565b935050505b808061044790611789565b9150506101e9565b508194505050505090565b6000600454905090565b6060600061047260016111cf565b90506000805b82811015610518573373ffffffffffffffffffffffffffffffffffffffff16600560006001846104a891906116a5565b815260200190815260200160002060040160009054906101000a900473ffffffffffffffffffffffffffffffffffffffff1673ffffffffffffffffffffffffffffffffffffffff16141561050557818061050190611789565b9250505b808061051090611789565b915050610478565b5060008167ffffffffffffffff81111561055b577f4e487b7100000000000000000000000000000000000000000000000000000000600052604160045260246000fd5b60405190808252806020026020018201604052801561059457816020015b6105816111f3565b8152602001906001900390816105795790505b5090506000805b84811015610800573373ffffffffffffffffffffffffffffffffffffffff16600560006001846105cb91906116a5565b815260200190815260200160002060040160009054906101000a900473ffffffffffffffffffffffffffffffffffffffff1673ffffffffffffffffffffffffffffffffffffffff1614156107ed5760006005600060018461062c91906116a5565b8152602001908152602001600020600001549050600560008281526020019081526020016000206040518060e0016040529081600082015481526020016001820160009054906101000a900473ffffffffffffffffffffffffffffffffffffffff1673ffffffffffffffffffffffffffffffffffffffff1673ffffffffffffffffffffffffffffffffffffffff168152602001600282015481526020016003820160009054906101000a900473ffffffffffffffffffffffffffffffffffffffff1673ffffffffffffffffffffffffffffffffffffffff1673ffffffffffffffffffffffffffffffffffffffff1681526020016004820160009054906101000a900473ffffffffffffffffffffffffffffffffffffffff1673ffffffffffffffffffffffffffffffffffffffff1673ffffffffffffffffffffffffffffffffffffffff168152602001600582015481526020016006820160009054906101000a900460ff1615151515815250508484815181106107d2577f4e487b7100000000000000000000000000000000000000000000000000000000600052603260045260246000fd5b602002602001018190525082806107e890611789565b935050505b80806107f890611789565b91505061059b565b508194505050505090565b60026000541415610851576040517f08c379a000000000000000000000000000000000000000000000000000000000815260040161084890611600565b60405180910390fd5b60026000819055506000811161089c576040517f08c379a000000000000000000000000000000000000000000000000000000000815260040161089390611620565b60405180910390fd5b60045434146108e0576040517f08c379a00000000000000000000000000000000000000000000000000000000081526004016108d7906115e0565b60405180910390fd5b6108ea60016111dd565b60006108f660016111cf565b90506040518060e001604052808281526020018573ffffffffffffffffffffffffffffffffffffffff1681526020018481526020013373ffffffffffffffffffffffffffffffffffffffff168152602001600073ffffffffffffffffffffffffffffffffffffffff16815260200183815260200160001515815250600560008381526020019081526020016000206000820151816000015560208201518160010160006101000a81548173ffffffffffffffffffffffffffffffffffffffff021916908373ffffffffffffffffffffffffffffffffffffffff1602179055506040820151816002015560608201518160030160006101000a81548173ffffffffffffffffffffffffffffffffffffffff021916908373ffffffffffffffffffffffffffffffffffffffff16021790555060808201518160040160006101000a81548173ffffffffffffffffffffffffffffffffffffffff021916908373ffffffffffffffffffffffffffffffffffffffff16021790555060a0820151816005015560c08201518160060160006101000a81548160ff0219169083151502179055509050508373ffffffffffffffffffffffffffffffffffffffff166323b872dd3330866040518463ffffffff1660e01b8152600401610ad793929190611522565b600060405180830381600087803b158015610af157600080fd5b505af1158015610b05573d6000803e3d6000fd5b50505050828473ffffffffffffffffffffffffffffffffffffffff16827f045dfa01dcba2b36aba1d3dc4a874f4b0c5d2fbeb8d2c4b34a7d88c8d8f929d1336000876000604051610b599493929190611559565b60405180910390a4506001600081905550505050565b60606000610b7d60016111cf565b90506000805b82811015610c23573373ffffffffffffffffffffffffffffffffffffffff1660056000600184610bb391906116a5565b815260200190815260200160002060030160009054906101000a900473ffffffffffffffffffffffffffffffffffffffff1673ffffffffffffffffffffffffffffffffffffffff161415610c10578180610c0c90611789565b9250505b8080610c1b90611789565b915050610b83565b5060008167ffffffffffffffff811115610c66577f4e487b7100000000000000000000000000000000000000000000000000000000600052604160045260246000fd5b604051908082528060200260200182016040528015610c9f57816020015b610c8c6111f3565b815260200190600190039081610c845790505b5090506000805b84811015610f0b573373ffffffffffffffffffffffffffffffffffffffff1660056000600184610cd691906116a5565b815260200190815260200160002060030160009054906101000a900473ffffffffffffffffffffffffffffffffffffffff1673ffffffffffffffffffffffffffffffffffffffff161415610ef857600060056000600184610d3791906116a5565b8152602001908152602001600020600001549050600560008281526020019081526020016000206040518060e0016040529081600082015481526020016001820160009054906101000a900473ffffffffffffffffffffffffffffffffffffffff1673ffffffffffffffffffffffffffffffffffffffff1673ffffffffffffffffffffffffffffffffffffffff168152602001600282015481526020016003820160009054906101000a900473ffffffffffffffffffffffffffffffffffffffff1673ffffffffffffffffffffffffffffffffffffffff1673ffffffffffffffffffffffffffffffffffffffff1681526020016004820160009054906101000a900473ffffffffffffffffffffffffffffffffffffffff1673ffffffffffffffffffffffffffffffffffffffff1673ffffffffffffffffffffffffffffffffffffffff168152602001600582015481526020016006820160009054906101000a900460ff161515151581525050848481518110610edd577f4e487b7100000000000000000000000000000000000000000000000000000000600052603260045260246000fd5b60200260200101819052508280610ef390611789565b935050505b8080610f0390611789565b915050610ca6565b508194505050505090565b60026000541415610f5c576040517f08c379a0000000000000000000000000000000000000000000000000000000008152600401610f5390611600565b60405180910390fd5b6002600081905550600060056000838152602001908152602001600020600501549050600060056000848152602001908152602001600020600201549050813414610fdc576040517f08c379a0000000000000000000000000000000000000000000000000000000008152600401610fd3906115c0565b60405180910390fd5b6005600084815260200190815260200160002060030160009054906101000a900473ffffffffffffffffffffffffffffffffffffffff1673ffffffffffffffffffffffffffffffffffffffff166108fc349081150290604051600060405180830381858888f19350505050158015611058573d6000803e3d6000fd5b508373ffffffffffffffffffffffffffffffffffffffff166323b872dd3033846040518463ffffffff1660e01b815260040161109693929190611522565b600060405180830381600087803b1580156110b057600080fd5b505af11580156110c4573d6000803e3d6000fd5b50505050336005600085815260200190815260200160002060040160006101000a81548173ffffffffffffffffffffffffffffffffffffffff021916908373ffffffffffffffffffffffffffffffffffffffff16021790555060016005600085815260200190815260200160002060060160006101000a81548160ff02191690831515021790555061115660026111dd565b600360009054906101000a900473ffffffffffffffffffffffffffffffffffffffff1673ffffffffffffffffffffffffffffffffffffffff166108fc6004549081150290604051600060405180830381858888f193505050501580156111c0573d6000803e3d6000fd5b50505060016000819055505050565b600081600001549050919050565b6001816000016000828254019250508190555050565b6040518060e0016040528060008152602001600073ffffffffffffffffffffffffffffffffffffffff16815260200160008152602001600073ffffffffffffffffffffffffffffffffffffffff168152602001600073ffffffffffffffffffffffffffffffffffffffff168152602001600081526020016000151581525090565b600081359050611283816118f1565b92915050565b60008135905061129881611908565b92915050565b600080604083850312156112b157600080fd5b60006112bf85828601611274565b92505060206112d085828601611289565b9150509250929050565b6000806000606084860312156112ef57600080fd5b60006112fd86828701611274565b935050602061130e86828701611289565b925050604061131f86828701611289565b9150509250925092565b60006113358383611476565b60e08301905092915050565b61134a81611741565b82525050565b6113598161172f565b82525050565b6113688161172f565b82525050565b60006113798261166b565b6113838185611683565b935061138e8361165b565b8060005b838110156113bf5781516113a68882611329565b97506113b183611676565b925050600181019050611392565b5085935050505092915050565b6113d581611753565b82525050565b6113e481611753565b82525050565b60006113f7604083611694565b915061140282611801565b604082019050919050565b600061141a602483611694565b915061142582611850565b604082019050919050565b600061143d601f83611694565b91506114488261189f565b602082019050919050565b6000611460601c83611694565b915061146b826118c8565b602082019050919050565b60e08201600082015161148c6000850182611504565b50602082015161149f6020850182611350565b5060408201516114b26040850182611504565b5060608201516114c56060850182611341565b5060808201516114d86080850182611341565b5060a08201516114eb60a0850182611504565b5060c08201516114fe60c08501826113cc565b50505050565b61150d8161177f565b82525050565b61151c8161177f565b82525050565b6000606082019050611537600083018661135f565b611544602083018561135f565b6115516040830184611513565b949350505050565b600060808201905061156e600083018761135f565b61157b602083018661135f565b6115886040830185611513565b61159560608301846113db565b95945050505050565b600060208201905081810360008301526115b8818461136e565b905092915050565b600060208201905081810360008301526115d9816113ea565b9050919050565b600060208201905081810360008301526115f98161140d565b9050919050565b6000602082019050818103600083015261161981611430565b9050919050565b6000602082019050818103600083015261163981611453565b9050919050565b60006020820190506116556000830184611513565b92915050565b6000819050602082019050919050565b600081519050919050565b6000602082019050919050565b600082825260208201905092915050565b600082825260208201905092915050565b60006116b08261177f565b91506116bb8361177f565b9250827fffffffffffffffffffffffffffffffffffffffffffffffffffffffffffffffff038211156116f0576116ef6117d2565b5b828201905092915050565b60006117068261177f565b91506117118361177f565b925082821015611724576117236117d2565b5b828203905092915050565b600061173a8261175f565b9050919050565b600061174c8261175f565b9050919050565b60008115159050919050565b600073ffffffffffffffffffffffffffffffffffffffff82169050919050565b6000819050919050565b60006117948261177f565b91507fffffffffffffffffffffffffffffffffffffffffffffffffffffffffffffffff8214156117c7576117c66117d2565b5b600182019050919050565b7f4e487b7100000000000000000000000000000000000000000000000000000000600052601160045260246000fd5b7f506c65617365207375626d6974207468652061736b696e67207072696365206960008201527f6e206f7264657220746f20636f6d706c65746520746865207075726368617365602082015250565b7f5072696365206d75737420626520657175616c20746f206c697374696e67207060008201527f7269636500000000000000000000000000000000000000000000000000000000602082015250565b7f5265656e7472616e637947756172643a207265656e7472616e742063616c6c00600082015250565b7f5072696365206d757374206265206174206c6561737420312077656900000000600082015250565b6118fa8161172f565b811461190557600080fd5b50565b6119118161177f565b811461191c57600080fd5b5056fea264697066735822122008caf8f4facc8aa95c0caf38944c31cd4460e175f5c2febc064ecef0b270107664736f6c63430008040033",
  "linkReferences": {},
  "deployedLinkReferences": {}
}